:020000040800F2
:1000000000000120E5590008EB590008FF590008DD
:10001000135A0008275A00083B5A00080000000045
:1000200000000000000000000000000021C20208E3
:10003000515A00080000000001C4020849C4020827
:10004000615A0008715A0008815A0008F15C0008E2
:10005000915A0008A15A0008B15A0008C15A000874
:10006000D15A0008E15A0008F15A0008015B000863
:10007000115B0008215B0008315B0008415B000850
:10008000515B0008615B0008715B0008815B000840
:10009000915B0008A15B0008B15B0008C15B000830
:1000A000D15B0008E15B0008F15B0008015C00081F
:1000B000115C0008215C0008315C0008415C00080C
:1000C000515C0008615C0008715C0008815C0008FC
:1000D000915C0008A15C0008B15C0008C15C0008EC
:1000E000D15C0008E15C0008015D0008115D0008BA
:1000F000215D0008315D0008415D0008515D000888
:10010000615D0008715D0008815D0008915D000877
:10011000A15D0008B15D0008C15D0008D15D000867
:10012000E15D0008F15D0008015E0008115E000855
:1001300000000000000000000000000000000000BF
:1001400000000000000000000000000000000000AF
:10015000000000000000000000000000000000009F
:10016000000000000000000000000000000000008F
:10017000000000000000000000000000000000007F
:10018000000000000000000000000000000000006F
:10019000000000000000000000000000000000005F
:1001A000000000000000000000000000000000004F
:1001B000000000000000000000000000000000003F
:1001C000000000000000000000000000000000002F
:1001D000000000000000000000000000000000001F
:1001E0005FF8E0F100B58FB0354B0293354B0193CA
:1001F000029B0093019A009B9A4205D9009B1A1D0D
:10020000009200221A60F5E72F4B06932F4B0593BF
:100210002F4B0493059B0393049A039B9A4208D99E
:10022000069B1A1D06921A68039B191D03911A60FA
:10023000F2E711F0F3FE274A274BD31A9B100893DD
:1002400000230793089A079B9A4208DD224A079BDE
:1002500052F823309847079B01330793F2E71F4A70
:100260001F4BD31A9B10089300230793089A079BF0
:100270009A4208DD1A4A079B52F823309847079B99
:1002800001330793F2E70C990D9801F035FA034614
:100290000B93144A144BD31A9B100A930A9B09938D
:1002A000099B002B09DD099B013B0F4A52F82330C3
:1002B0009847099B013B0993F2E70B9811F008FF5F
:1002C00058090020602E00205C2404080000002053
:1002D000540900202C0300082C03000834030008F4
:0C02E0002C030008380300083403000859
:1002EC005C24040800000020540900205C2404084D
:1002FC00000000000000000058090020602E0020C3
:10030C000000000000000000F8B500BFF8BC08BCFD
:10031C009E467047F8B500BFF8BC08BC9E467047B7
:0C032C0065030008D759000841030008D1
:1003400010B5054C237833B9044B13B10448AFF30F
:1003500000800123237010BD580900200000000018
:10036000D40E040808B5034B1BB103490348AFF38F
:10037000008008BD000000005C090020D40E0408C5
:10038000A3F5803A704700BF154B002B08BF114BF7
:100390009D46FFF7F5FF00218B460F461148124A94
:1003A000121A31F09BF80C4B002B00D098470B4BE6
:1003B000002B00D098470020002104000D000B48BE
:1003C00030F0C4FF31F01EF82000290001F094F94C
:1003D00030F0DEFF00000800000000000000000018
:1003E0000000012058090020602E0020B9130308E6
:1003F000FEE7000000B583B0019000220C214020F0
:100400002CF006F90346024A136003B05DF804FBC2
:100410007409002000B583B001900091009B1B6817
:10042000002B07D0009B1B68009A5068009A9268C6
:1004300011469847009B5B68002B04D0009B5B68CB
:10044000184631F00BF803B05DF804FB00B583B03B
:1004500001900091019B009A1146184600F03EF869
:10046000019B184603B05DF804FB00B583B0019012
:100470000091019B00991846FFF7E8FF019B184681
:1004800003B05DF804FB10B584B00190019B1846E1
:1004900000F036F80390039B1B68002B0CD00198EA
:1004A00000F03AF80446039800F042F803461B684F
:1004B0001946204600F042F8039B00221A60019B77
:1004C000184604B010BD00B583B00190019800F04B
:1004D00043F80346184603B05DF804FB10B582B03C
:1004E00001900091019B184600F06BF8009C019868
:1004F00000F006F803461C60019B184602B010BDD0
:1005000000B583B00190019B184600F066F80346E1
:10051000184603B05DF804FB00B583B00190019B61
:10052000184600F066F80346184603B05DF804FB71
:1005300082B00190019B184602B0704700B583B0AD
:1005400001900091009B002B03D00121184630F050
:100550003BFA03B05DF804FB00B583B00190019B4A
:10056000184600F052F80346184603B05DF804FB45
:1005700082B00190019B184602B0704700B583B06D
:1005800001900198FFF7F4FF019B184603B05DF856
:1005900004FB82B00190019B00221A60019B184667
:1005A00002B0704700B583B001900198FFF7E6FFF5
:1005B000019B1846FFF7EDFF019B184603B05DF85D
:1005C00004FB00B583B00190019B1846FFF7EAFFDA
:1005D000019B184603B05DF804FB00B583B00190A1
:1005E000019B184600F01EF80346184603B05DF85C
:1005F00004FB00B583B00190019B184600F01DF884
:100600000346184603B05DF804FB00B583B00190C3
:10061000019B184600F01CF803461B68184603B0FF
:100620005DF804FB00B583B00190019800F01CF860
:100630000346184603B05DF804FB00B583B0019093
:10064000019800F01DF80346184603B05DF804FB5E
:1006500000B583B00190019B184600F01CF80346DA
:10066000184603B05DF804FB00B583B00190019B10
:10067000184600F01BF80346184603B05DF804FB6B
:1006800000B583B00190019800F016F803461846B3
:1006900003B05DF804FB00B583B00190019800F051
:1006A00016F80346184603B05DF804FB82B00190CB
:1006B000019B184602B0704700B583B001900198C5
:1006C00000F011F80346184603B05DF804FB00B5CE
:1006D00083B00190019B184600F00BF803461846C2
:1006E00003B05DF804FB82B00190019B184602B094
:1006F000704782B00190019B184602B070472DE907
:10070000F04385B00390CDE90023039B1B78002BB9
:1007100024D0039B591C039B1B78DBB20022984614
:100720009146DDE9002388EA020489EA030540F2E4
:10073000B31303FB05F24FF4807304FB03F313447C
:1007400040F2B312A4FB02673B441F4632463B46CD
:100750000846FFF7D4FF02460B4601E0DDE900231F
:100760001046194605B0BDE8F08300000000000007
:1007700010B586B003900291019200932A4A039B20
:100780001A60039B019A9A60039B089A1A61019B65
:100790009B00184630F05AFE03461A46039B5A60E7
:1007A000039B5868019B9B001A46029930F06EFE2D
:1007B000089B9B00184630F049FE03461A46039BEF
:1007C000DA60039BD868089B9B001A46009930F0BA
:1007D0005DFE00230593039B1B69059A9A421AD27A
:1007E000039BDA68059B9B0013441B681968039BF5
:1007F000DA68059B9B0013441C6809A3D3E9002316
:100800000846FFF77CFF02460B46C4E90223059B1E
:1008100001330593DFE7039B184606B010BD00BF08
:1008200025232284E49CF2CBFC88030800B589B020
:100830000190019B0793104B1B68002B17D00E4BA8
:100840001B6803A94FF0FF3218462CF0DFF903466E
:100850000693069B012B14BF01230023DBB2002B60
:10086000EDD103AB19460798FFF7D4FDE7E700BFCA
:1008700000202CF029FEFEE77409002000B583B0AB
:1008800001900091019B009A1146184600F03EF835
:10089000019B184603B05DF804FB00B583B00190DE
:1008A0000091019B00991846FFF7E8FF019B18464D
:1008B00003B05DF804FB10B584B00190019B1846AD
:1008C00000F036F80390039B1B68002B0CD00198B6
:1008D00000F03AF80446039800F042F803461B681B
:1008E0001946204600F05DF8039B00221A60019B28
:1008F000184604B010BD00B583B00190019800F017
:100900005FF80346184603B05DF804FB10B582B0EB
:1009100001900091019B184600F087F8009C019817
:1009200000F006F803461C60019B184602B010BD9B
:1009300000B583B00190019B184600F082F8034691
:10094000184603B05DF804FB00B583B00190019B2D
:10095000184600F082F80346184603B05DF804FB21
:1009600082B00190019B184602B0704782B001909E
:10097000034A019B1A60019B184602B0704700BFF2
:10098000FC88030800B583B001900198FFF7EEFFE3
:100990001421019830F018F8019B184603B05DF857
:1009A00004FB00B583B001900091009B002B04D0A4
:1009B0001A68043212681846904703B05DF804FBC9
:1009C00000B583B00190019B184600F052F8034631
:1009D000184603B05DF804FB82B00190019B1846F5
:1009E00002B0704700B583B001900198FFF7F4FFA3
:1009F000019B184603B05DF804FB82B00190019B97
:100A000000221A60019B184602B0704700B583B0FF
:100A100001900198FFF7E6FF019B1846FFF7EDFFF5
:100A2000019B184603B05DF804FB00B583B001904C
:100A3000019B1846FFF7EAFF019B184603B05DF8DB
:100A400004FB00B583B00190019B184600F01EF82E
:100A50000346184603B05DF804FB00B583B001906F
:100A6000019B184600F01DF80346184603B05DF8D8
:100A700004FB00B583B00190019B184600F01CF800
:100A800003461B68184603B05DF804FB00B583B04D
:100A90000190019800F01CF80346184603B05DF879
:100AA00004FB00B583B00190019800F01DF80346E7
:100AB000184603B05DF804FB00B583B00190019BBC
:100AC000184600F01CF80346184603B05DF804FB16
:100AD00000B583B00190019B184600F01BF8034657
:100AE000184603B05DF804FB00B583B0019001988F
:100AF00000F016F80346184603B05DF804FB00B595
:100B000083B00190019800F016F80346184603B030
:100B10005DF804FB82B00190019B184602B070475B
:100B200000B583B00190019800F011F80346184613
:100B300003B05DF804FB00B583B00190019B18463B
:100B400000F00BF80346184603B05DF804FB82B0D2
:100B50000190019B184602B0704782B00190019B42
:100B6000184602B07047000000B587B001900091B0
:100B70001FA3D3E900230098FFF7C1FDCDE90201CF
:100B800000230593019B9B68059A9A4229D2019BF9
:100B90005A68059B9B0013441B681B6810331B6835
:100BA000019A5168059A92000A44126810469847C3
:100BB0000346D3E90023DDE90201994208BF9042D0
:100BC0000CBF01230023DBB2002B06D0019B5A6827
:100BD000059B9B0013441B6804E0059B01330593B0
:100BE000D0E70023184607B05DF804FBAFF30080A0
:100BF00025232284E49CF2CB82B00190019BDB6828
:100C0000184602B0704782B00190019B1B691846DC
:100C100002B070470000000000B587B0019000915D
:100C200017A3D3E900230098FFF769FDCDE902017E
:100C300000230593019B1B69059A9A4218D2019BD8
:100C4000DA68059B9B0013441B68D3E90223DDE9A6
:100C50000201994208BF904206D1019BDA68059BC8
:100C60009B0013441B6804E0059B01330593E1E7F7
:100C70000023184607B05DF804FB00BFAFF3008007
:100C800025232284E49CF2CB00B58DB0039000F0C4
:100C900061F803460B930B9BDB0FDBB2002B45D1B6
:100CA00000F09AF803460B930B9BDB0FDBB2002B93
:100CB0003ED1254B1B681846FFF79EFF0A90224B3A
:100CC0001B681846FFF79FFF09901F4B1B681F49C1
:100CD0001846FFF7A1FF0890089B002B2AD01A4B5B
:100CE0001B681B491846FFF797FF0790079B002BCF
:100CF00022D0089B5868089B196805AB019305230F
:100D00000093039BD8222CF09DFA079B5868079B01
:100D1000196806AB019308230093039B4FF45872A4
:100D20002CF090FA64202CF05DFCFBE700BF04E09F
:100D300000BF02E000BF00E000BF00202CF0C4FBB9
:100D40000DB05DF804FB00BFC80A00201C89030831
:100D50002489030800B585B01D4B186803230322BE
:100D60001C4914F0B7FA03460393039BDB0FDBB275
:100D7000002B22D1164B1868002301930023009307
:100D80004FF001024FF00003124914F0ECFA034651
:100D90000293029BDB0FDBB2002B10D10C4B1B68C4
:100DA0000C49184614F04CFB03460293029BDB0FE0
:100DB000DBB2002B05D1029B06E000BF02E000BFC2
:100DC00000E000BF4FF0FF33184605B05DF804FBAC
:100DD000C80A00203C89030800B587B0204A02AB4E
:100DE00092E8030083E803001E4B186803230322E4
:100DF0001D4914F06FFA03460593059BDB0FDBB228
:100E0000002B22D1174B18680823019302AB0093E3
:100E10004FF000024FF00003134914F0A4FA034608
:100E20000493049BDB0FDBB2002B10D10D4B1B682E
:100E30000D49184614F004FB03460493049BDB0F92
:100E4000DBB2002B05D1049B06E000BF02E000BF2F
:100E500000E000BF4FF0FF33184607B05DF804FB19
:100E600058890308C80A00204889030800B58DB0D6
:100E70000590049103920293029B0693049B0793AF
:100E8000039B08930E9B09932F4B1B682F49184611
:100E9000FFF76AFE03460B930B9B002B0CBF01234D
:100EA0000023DBB2002B05D010222949294813F07A
:100EB00013FF42E0244B186803230322264914F051
:100EC00009FA03460A930A9BDB0FDBB2002B05D01D
:100ED00015221F491F4813F0FFFE2EE01A4B186819
:100EE0001023019306AB00934FF002024FF0000372
:100EF000194914F038FA03460A930A9BDB0FDBB258
:100F0000002B05D01B221249124813F0E5FE14E015
:100F10000D4B1B681049184614F092FA03460A93C9
:100F20000A9BDB0FDBB2002B05D0202208490948C1
:100F300013F0D2FE01E00A9B01E04FF0FF331846A8
:100F40000DB05DF804FB00BFC80A0020A08A0308AA
:100F5000A88A0308E88A0308F88A030800B58DB058
:100F60000590049103920293029B0693049B0793BE
:100F7000039B08930E9B09932F4B1B682F49184620
:100F8000FFF7F2FD03460B930B9B002B0CBF0123D5
:100F90000023DBB2002B05D030222949294813F069
:100FA0009BFE42E0244B186803230322264914F0D9
:100FB00091F903460A930A9BDB0FDBB2002B05D0A5
:100FC00035221F491F4813F087FE2EE01A4B186880
:100FD0001023019306AB00934FF003024FF0000380
:100FE000194914F0C0F903460A930A9BDB0FDBB2E0
:100FF000002B05D03A221249124813F06DFE14E07E
:101000000D4B1B681049184614F01AFA03460A9350
:101010000A9BDB0FDBB2002B05D03F2208490948B1
:1010200013F05AFE01E00A9B01E04FF0FF3318462F
:101030000DB05DF804FB00BFC80A0020A08A0308B9
:10104000A88A0308E88A0308F88A030800B589B06B
:1010500003900291029B05932F4B1B682F49184662
:10106000FFF782FD03460793079B002B0CBF01236C
:101070000023DBB2002B05D04F222949294813F069
:101080002BFE42E0244B186803230322264914F068
:1010900021F903460693069BDB0FDBB2002B05D03C
:1010A00054221F491F4813F017FE2EE01A4B1868F0
:1010B0000423019305AB00934FF004024FF00003AB
:1010C000194914F050F903460693069BDB0FDBB277
:1010D000002B05D059221249124813F0FDFD14E0EF
:1010E0000D4B1B681049184614F0AAF903460693E5
:1010F000069BDB0FDBB2002B05D05E2208490948B6
:1011000013F0EAFD01E0069B01E04FF0FF331846C3
:1011100009B05DF804FB00BFC80A0020A08A0308DC
:10112000A88A0308E88A0308F88A030882B00190B5
:101130000023184602B0704700B591B00DAB029382
:101140000AAB03930CAB049309AB05930BAB06936B
:1011500008AB07933A4B1B683A491846FFF704FD62
:1011600003460F930F9B002B0CBF01230023DBB220
:10117000002B05D085223449344813F0ADFD58E0EA
:101180002F4B186803230322314914F0A3F80346B8
:101190000E930E9BDB0FDBB2002B05D08A222A496F
:1011A0002A4813F099FD44E0254B18681823019351
:1011B00002AB00934FF006024FF00003244914F0F5
:1011C000D2F803460E930E9BDB0FDBB2002B05D04B
:1011D0008F221D491D4813F07FFD2AE0184B1B6824
:1011E0001B49184614F02CF903460E930E9BDB0F97
:1011F000DBB2002B05D094221349144813F06CFD88
:1012000017E0144B10225A61124B10229A610D9B69
:10121000104AD3610A9B0F4A13620E4B4FF4FA72C5
:101220005A620C4B10229A620A4B1022DA620E9B11
:1012300001E04FF0FF33184611B05DF804FB00BF2A
:10124000C80A0020A08A0308A88A0308E88A0308BD
:10125000F88A0308E801002082B00190064A019B49
:101260001A60019B00225A60019B01229A60019B37
:10127000184602B0704700BF808E030800B583B0E7
:101280000190094A019B1A60019B5B68002B05D005
:10129000019B5B681946019800F017F8019B1846FE
:1012A00003B05DF804FB00BF808E030800B583B077
:1012B00001900198FFF7E2FF0C2101982FF084FBC9
:1012C000019B184603B05DF804FB00B583B00190A4
:1012D0000091009B002B0FD0009B5B6A1946019880
:1012E000FFF7F3FF009B9B6A19460198FFF7EDFF9C
:1012F000009830F0B3F800E000BF03B05DF804FBE5
:1013000000B583B00190064A019B1A60019B04332B
:101310001846FFF7A1FF019B184603B05DF804FBD8
:10132000648E030800B583B00190064A019B1A60E1
:10133000019B04331846FFF7A1FF019B184603B039
:101340005DF804FB648E030800B583B00190009142
:10135000019B1846FFF7D4FF054A019B1A60019BC9
:10136000009A1A61019B184603B05DF804FB00BFA8
:10137000408E030800B583B00190019B1B691B6878
:10138000019A1046984703B05DF804FB00B583B09E
:101390000190019B1B695B68019A1046984703B056
:1013A0005DF804FB30B587B0059004910392029379
:1013B000224B1B78BFF35B8FDBB203F00103002BE2
:1013C0000CBF01230023DBB2002B24D01B482FF0DD
:1013D0009AFD0346002B14BF01230023DBB2002B30
:1013E00019D0002414202FF0A0FD03461C46029BB8
:1013F0000093039B049A05992046FFF7B9F921460B
:101400000F48FFF74AFA0D482FF08CFD0D4A0E49A0
:101410000B482FF060FA0A48FFF76DFA034609E01F
:101420000546002C02D105482FF079FD2B461846C1
:1014300036F0A8FC184607B030BD00BF480A0020AF
:10144000440A002000000020B708000838B51D4BF2
:101450001B78BFF35B8FDBB203F00103002B0CBFE3
:1014600001230023DBB2002B1BD016482FF04BFDCD
:101470000346002B14BF01230023DBB2002B10D046
:10148000002401202FF051FD034619460E48FEF7B7
:10149000ECFF0C482FF046FD0C4A0D490A482FF08E
:1014A0001AFA0948FFF70FF8034609E00546002C31
:1014B00002D104482FF033FD2B46184636F062FC6B
:1014C000184638BD500A00204C0A002000000020B9
:1014D0008704000800B583B00190019800F024F95A
:1014E0000346184603B05DF804FB00B583B00190D5
:1014F00000910099019800F063F90346184603B083
:101500005DF804FB00B583B001900091009901984B
:1015100000F0A4F90346184603B05DF804FB00B5DB
:1015200083B0019000910099019800F0E5F903461D
:10153000184603B05DF804FB00B583B0019000913C
:101540000099019800F026FA0346184603B05DF8AA
:1015500004FB00B583B0019000910099019800F060
:1015600067FA0346184603B05DF804FB00B583B084
:10157000019000910099019800F0A8FA03461846DE
:1015800003B05DF804FB00B583B0019000910099B1
:10159000019800F0E9FA0346184603B05DF804FB31
:1015A00000B583B0019000910099019800F02AFBEA
:1015B0000346184603B05DF804FB00B583B0019004
:1015C00000910099019800F06BFB0346184603B0A8
:1015D0005DF804FB00B583B001900091009901987B
:1015E00000F0ACFB0346184603B05DF804FB00B501
:1015F00083B0019000910099019800F0EDFB034643
:10160000184603B05DF804FB00B583B0019000916B
:101610000099019800F02EFC0346184603B05DF8CF
:1016200004FB00B583B0019000910099019800F08F
:101630006FFC0346184603B05DF804FB30B583B079
:10164000244B1B78BFF35B8FDBB203F00103002B4D
:101650000CBF01230023DBB2002B13D01D482FF059
:1016600052FC0346002B14BF01230023DBB2002BE6
:1016700008D00024FFF7EAFE0346174A1360154816
:101680002FF050FC144B1B681846FEF7B3FE124BAC
:101690001B68124A01920A2200924FF458721049B4
:1016A00010482BF0CFFD104B0193052300930F4BF7
:1016B000D8220F490F482BF0C5FD09E00546002C44
:1016C00002D104482FF02BFC2B46184636F05AFB6B
:1016D00003B030BDD00A0020CC0A0020D80A002078
:1016E000C88B03082D080008D40A0020A802002097
:1016F000DC8B0308890C000800B583B001900091D1
:10170000064B1B68064A0749184600F04FFC4FF08D
:10171000FF33184603B05DF804FB00BFC80A002081
:101720004DD602083D16000830B583B00190204B1D
:101730001B78BFF35B8FDBB203F00103002B0CBF00
:1017400001230023DBB2002B20D019482FF0DBFB54
:101750000346002B14BF01230023DBB2002B15D05E
:10176000002420202FF0E1FB03461C46019920466F
:1017700000F056FC21460F4800F089FC0C482FF081
:10178000D1FB0D4A0D490B482FF0A5F8094800F090
:10179000ACFC034609E00546002C02D104482FF0BA
:1017A000BEFB2B46184636F0EDFA184603B030BDA6
:1017B000E00A0020DC0A002000000020AB20000826
:1017C00030B583B001900091204B1B78BFF35B8F45
:1017D000DBB203F00103002B0CBF01230023DBB2BB
:1017E000002B21D019482FF08EFB0346002B14BF8D
:1017F00001230023DBB2002B16D0002428202FF079
:1018000094FB03461C46009A0199204600F078FCA0
:1018100021460F4800F0B3FC0C482FF083FB0D4A23
:101820000D490B482FF057F8094800F0D6FC034645
:1018300009E00546002C02D104482FF070FB2B462E
:10184000184636F09FFA184603B030BDE80A00206B
:10185000E40A0020000000209B21000830B583B07E
:1018600001900091204B1B78BFF35B8FDBB203F03C
:101870000103002B0CBF01230023DBB2002B21D07E
:1018800019482FF040FB0346002B14BF012300230F
:10189000DBB2002B16D0002428202FF046FB034695
:1018A0001C46009A0199204600F0A2FC21460F48F0
:1018B00000F0DDFC0C482FF035FB0D4A0D490B48BC
:1018C0002FF009F8094800F000FD034609E005463D
:1018D000002C02D104482FF022FB2B46184636F08C
:1018E00051FA184603B030BDF00A0020EC0A00207F
:1018F000000000208B22000830B583B001900091D9
:10190000204B1B78BFF35B8FDBB203F00103002B8E
:101910000CBF01230023DBB2002B21D019482FF08C
:10192000F2FA0346002B14BF01230023DBB2002B85
:1019300016D0002428202FF0F8FA03461C46009AFF
:101940000199204600F0CCFC21460F4800F007FD2D
:101950000C482FF0E7FA0D4A0D490B482EF0BBFF5B
:10196000094800F02AFD034609E00546002C02D193
:1019700004482FF0D4FA2B46184636F003FA1846DE
:1019800003B030BDF80A0020F40A00200000002057
:101990007B23000830B583B001900091204B1B7869
:1019A000BFF35B8FDBB203F00103002B0CBF0123FD
:1019B0000023DBB2002B21D019482FF0A4FA0346F4
:1019C000002B14BF01230023DBB2002B16D0002410
:1019D00030202FF0AAFA03461C46009A01992046AF
:1019E00000F0F6FC21460F4800F031FD0C482FF0C6
:1019F00099FA0D4A0D490B482EF06DFF094800F089
:101A000054FD034609E00546002C02D104482FF09E
:101A100086FA2B46184636F0B5F9184603B030BDA5
:101A2000000B0020FC0A0020000000206B240008AE
:101A300030B583B001900091204B1B78BFF35B8FD2
:101A4000DBB203F00103002B0CBF01230023DBB248
:101A5000002B21D019482FF056FA0346002B14BF53
:101A600001230023DBB2002B16D0002430202FF0FE
:101A70005CFA03461C46009A0199204600F020FDBE
:101A800021460F4800F05BFD0C482FF04BFA0D4A41
:101A90000D490B482EF01FFF094800F07EFD03465C
:101AA00009E00546002C02D104482FF038FA2B46F5
:101AB000184636F067F9184603B030BD080B002011
:101AC000040B0020000000205B25000830B583B027
:101AD00001900091204B1B78BFF35B8FDBB203F0CA
:101AE0000103002B0CBF01230023DBB2002B21D00C
:101AF00019482FF008FA0346002B14BF01230023D6
:101B0000DBB2002B16D0002430202FF00EFA034653
:101B10001C46009A0199204600F04AFD21460F48D4
:101B200000F085FD0C482FF0FDF90D4A0D490B48DA
:101B30002EF0D1FE094800F0A8FD034609E0054655
:101B4000002C02D104482FF0EAF92B46184636F053
:101B500019F9184603B030BD100B00200C0B002003
:101B6000000000204B26000830B583B001900091A2
:101B7000204B1B78BFF35B8FDBB203F00103002B1C
:101B80000CBF01230023DBB2002B21D019482FF01A
:101B9000BAF90346002B14BF01230023DBB2002B4C
:101BA00016D0002428202FF0C0F903461C46009AC6
:101BB0000199204600F074FD21460F4800F0AFFD6A
:101BC0000C482FF0AFF90D4A0D490B482EF083FE5B
:101BD000094800F0D2FD034609E00546002C02D179
:101BE00004482FF09CF92B46184636F0CBF81846DF
:101BF00003B030BD180B0020140B002000000020A3
:101C00003B27000830B583B001900091204B1B7832
:101C1000BFF35B8FDBB203F00103002B0CBF01238A
:101C20000023DBB2002B21D019482FF06CF90346BA
:101C3000002B14BF01230023DBB2002B16D000249D
:101C400028202FF072F903461C46009A019920467D
:101C500000F09EFD21460F4800F0D9FD0C482FF002
:101C600061F90D4A0D490B482EF035FE094800F088
:101C7000FCFD034609E00546002C02D104482FF084
:101C80004EF92B46184636F07DF8184603B030BDA5
:101C9000200B00201C0B0020000000202B28000837
:101CA00030B583B001900091204B1B78BFF35B8F60
:101CB000DBB203F00103002B0CBF01230023DBB2D6
:101CC000002B21D019482FF01EF90346002B14BF1A
:101CD00001230023DBB2002B16D0002428202FF094
:101CE00024F903461C46009A0199204600F0C8FDDD
:101CF00021460F4800F003FE0C482FF013F90D4A5F
:101D00000D490B482EF0E7FD094800F026FE03467A
:101D100009E00546002C02D104482FF000F92B46BB
:101D2000184636F02FF8184603B030BD280B0020B7
:101D3000240B0020000000201B29000830B583B0D0
:101D400001900091204B1B78BFF35B8FDBB203F057
:101D50000103002B0CBF01230023DBB2002B21D099
:101D600019482FF0D0F80346002B14BF012300239D
:101D7000DBB2002B16D0002428202FF0D6F8034623
:101D80001C46009A0199204600F0F2FD21460F48BA
:101D900000F02DFE0C482FF0C5F80D4A0D490B48F8
:101DA0002EF099FD094800F050FE034609E0054673
:101DB000002C02D104482FF0B2F82B46184635F01B
:101DC000E1FF184603B030BD300B00202C0B002083
:101DD000000000200B2A000830B583B0019000916C
:101DE000204B1B78BFF35B8FDBB203F00103002BAA
:101DF0000CBF01230023DBB2002B21D019482FF0A8
:101E000082F80346002B14BF01230023DBB2002B12
:101E100016D0002428202FF088F803461C46009A8C
:101E20000199204600F01CFE21460F4800F057FEA5
:101E30000C482FF077F80D4A0D490B482EF04BFD5A
:101E4000094800F07AFE034609E00546002C02D15D
:101E500004482FF064F82B46184635F093FF1846D7
:101E600003B030BD380B0020340B002000000020F0
:101E7000FB2A000830B583B001900091204B1B78FD
:101E8000BFF35B8FDBB203F00103002B0CBF012318
:101E90000023DBB2002B21D019482FF034F8034681
:101EA000002B14BF01230023DBB2002B16D000242B
:101EB00030202FF03AF803461C46009A019920463C
:101EC00000F046FE21460F4800F081FE0C482FF03E
:101ED00029F80D4A0D490B482EF0FDFC094800F089
:101EE000A4FE034609E00546002C02D104482FF069
:101EF00016F82B46184635F045FF184603B030BD9E
:101F0000400B00203C0B002000000020EB2B0008C1
:101F100030B583B001900091204B1B78BFF35B8FED
:101F2000DBB203F00103002B0CBF01230023DBB263
:101F3000002B21D019482EF0E6FF0346002B14BFDA
:101F400001230023DBB2002B16D0002430202EF01A
:101F5000ECFF03461C46009A0199204600F070FEF3
:101F600021460F4800F0ABFE0C482EF0DBFF0D4A77
:101F70000D490B482EF0AFFC094800F0CEFE034699
:101F800009E00546002C02D104482EF0C8FF2B467C
:101F9000184635F0F7FE184603B030BD480B002058
:101FA000440B002000000020DB2C000800B587B0A7
:101FB00003900291019200230593039B9B68059A6D
:101FC0009A4214D2039B5A68059B9B0013441B68DA
:101FD0001B6804331B68039A5168059A92000A44EF
:101FE000126810469847059B01330593E5E7029B6D
:101FF0009847019B984707B05DF804FB00B583B094
:102000000190064A019B1A60019B1846FFF78AF966
:10201000019B184603B05DF804FB00BF408E030827
:1020200000B583B001900091019B00991846FFF71D
:102030008BF90D4A019B1A60019B0C4A5A6108A357
:10204000D3E900230948FEF75AFB02460B460199E3
:10205000C1E90623019B184603B05DF804FB00BFED
:1020600025232284E49CF2CB1C8E0308E88B030812
:1020700000B583B001900091019B009A114618466B
:1020800000F056FE019B184603B05DF804FB00B556
:1020900083B001900091019B00991846FFF7E8FF7B
:1020A000019B184603B05DF804FB10B584B00190A5
:1020B000019B184600F04EFE0390039B1B68002B0B
:1020C0000CD0019800F052FE0446039800F05AFE2E
:1020D00003461B681946204600F07BFE039B002246
:1020E0001A60019B184604B010BD00B583B0019082
:1020F000019800F07BFE0346184603B05DF804FB30
:1021000000B585B0039002910192039B0299184695
:10211000FFF71AF9104A039B1A60039B0F4A5A6192
:102120000BA3D3E900230D48FEF7E9FA02460B465C
:102130000399C1E90623039B203304220199184621
:102140002FF0A4F9039B184605B05DF804FB00BF0F
:1021500025232284E49CF2CBF88D0308EC8B030842
:1021600000B583B001900091019B009A114618467A
:1021700000F048FE019B184603B05DF804FB00B573
:1021800083B001900091019B00991846FFF7E8FF8A
:10219000019B184603B05DF804FB10B584B00190B4
:1021A000019B184600F040FE0390039B1B68002B28
:1021B0000CD0019800F044FE0446039800F04CFE59
:1021C00003461B681946204600F06DFE039B002263
:1021D0001A60019B184604B010BD00B583B0019091
:1021E000019800F06FFE0346184603B05DF804FB4B
:1021F00000B585B0039002910192039B02991846A5
:10220000FFF7A2F8104A039B1A60039B0F4A5A611A
:102210000BA3D3E900230D48FEF771FA02460B46E3
:102220000399C1E90623039B20330822019918462C
:102230002FF02CF9039B184605B05DF804FB00BF96
:1022400025232284E49CF2CBD48D03082C89030837
:1022500000B583B001900091019B009A1146184689
:1022600000F03CFE019B184603B05DF804FB00B58E
:1022700083B001900091019B00991846FFF7E8FF99
:10228000019B184603B05DF804FB10B584B00190C3
:10229000019B184600F034FE0390039B1B68002B43
:1022A0000CD0019800F038FE0446039800F040FE80
:1022B00003461B681946204600F061FE039B00227E
:1022C0001A60019B184604B010BD00B583B00190A0
:1022D000019800F063FE0346184603B05DF804FB66
:1022E00000B585B0039002910192039B02991846B4
:1022F000FFF72AF8104A039B1A60039B0F4A5A61A2
:102300000BA3D3E900230D48FEF7F9F902460B466B
:102310000399C1E90623039B20330822019918463B
:102320002FF0B4F8039B184605B05DF804FB00BF1E
:1023300025232284E49CF2CB8C8D0308F48B0308C4
:1023400000B583B001900091019B009A1146184698
:1023500000F030FE019B184603B05DF804FB00B5A9
:1023600083B001900091019B00991846FFF7E8FFA8
:10237000019B184603B05DF804FB10B584B00190D2
:10238000019B184600F028FE0390039B1B68002B5E
:102390000CD0019800F02CFE0446039800F034FEA7
:1023A00003461B681946204600F055FE039B002299
:1023B0001A60019B184604B010BD00B583B00190AF
:1023C000019800F057FE0346184603B05DF804FB81
:1023D00000B585B0039002910192039B02991846C3
:1023E000FEF7B2FF104A039B1A60039B0F4A5A6123
:1023F0000BA3D3E900230D48FEF781F902460B46F3
:102400000399C1E90623039B20330C220199184646
:102410002FF03CF8039B184605B05DF804FB00BFA5
:1024200025232284E49CF2CB688D0308F88B0308F3
:1024300000B583B001900091019B009A11461846A7
:1024400000F024FE019B184603B05DF804FB00B5C4
:1024500083B001900091019B00991846FFF7E8FFB7
:10246000019B184603B05DF804FB10B584B00190E1
:10247000019B184600F01CFE0390039B1B68002B79
:102480000CD0019800F020FE0446039800F028FECE
:1024900003461B681946204600F049FE039B0022B4
:1024A0001A60019B184604B010BD00B583B00190BE
:1024B000019800F04BFE0346184603B05DF804FB9C
:1024C00000B585B0039002910192039B02991846D2
:1024D000FEF73AFF104A039B1A60039B0F4A5A61AA
:1024E0000BA3D3E900230D48FEF709F902460B467A
:1024F0000399C1E90623039B20330C220199184656
:102500002EF0C4FF039B184605B05DF804FB00BF26
:1025100025232284E49CF2CB448D0308008C03081D
:1025200000B583B001900091019B009A11461846B6
:1025300000F018FE019B184603B05DF804FB00B5DF
:1025400083B001900091019B00991846FFF7E8FFC6
:10255000019B184603B05DF804FB10B584B00190F0
:10256000019B184600F010FE0390039B1B68002B94
:102570000CD0019800F014FE0446039800F01CFEF5
:1025800003461B681946204600F03DFE039B0022CF
:102590001A60019B184604B010BD00B583B00190CD
:1025A000019800F03FFE0346184603B05DF804FBB7
:1025B00000B585B0039002910192039B02991846E1
:1025C000FEF7C2FE104A039B1A60039B0F4A5A6132
:1025D0000BA3D3E900230D48FEF791F802460B4602
:1025E0000399C1E90623039B20330C220199184665
:1025F0002EF04CFF039B184605B05DF804FB00BFAE
:1026000025232284E49CF2CBB08D0308088C0308B8
:1026100000B583B001900091019B009A11461846C5
:1026200000F00CFE019B184603B05DF804FB00B5FA
:1026300083B001900091019B00991846FFF7E8FFD5
:10264000019B184603B05DF804FB10B584B00190FF
:10265000019B184600F004FE0390039B1B68002BAF
:102660000CD0019800F008FE0446039800F010FE1C
:1026700003461B681946204600F031FE039B0022EA
:102680001A60019B184604B010BD00B583B00190DC
:10269000019800F033FE0346184603B05DF804FBD2
:1026A00000B585B0039002910192039B02991846F0
:1026B000FEF74AFE104A039B1A60039B0F4A5A61B9
:1026C0000BA3D3E900230D48FEF719F802460B4689
:1026D0000399C1E90623039B203308220199184678
:1026E0002EF0D4FE039B184605B05DF804FB00BF36
:1026F00025232284E49CF2CB208D03080C8C030854
:1027000000B583B001900091019B009A11461846D4
:1027100000F000FE019B184603B05DF804FB00B515
:1027200083B001900091019B00991846FFF7E8FFE4
:10273000019B184603B05DF804FB10B584B001900E
:10274000019B184600F0F8FD0390039B1B68002BCB
:102750000CD0019800F0FCFD0446039800F004FE44
:1027600003461B681946204600F025FE039B002205
:102770001A60019B184604B010BD00B583B00190EB
:10278000019800F027FE0346184603B05DF804FBED
:1027900000B585B0039002910192039B02991846FF
:1027A000FEF7D2FD104A039B1A60039B0F4A5A6141
:1027B0000BA3D3E900230D48FDF7A1FF02460B460A
:1027C0000399C1E90623039B203308220199184687
:1027D0002EF05CFE039B184605B05DF804FB00BFBD
:1027E00025232284E49CF2CBFC8C0308148C030880
:1027F00000B583B001900091019B009A11461846E4
:1028000000F0F4FD019B184603B05DF804FB00B531
:1028100083B001900091019B00991846FFF7E8FFF3
:10282000019B184603B05DF804FB10B584B001901D
:10283000019B184600F0ECFD0390039B1B68002BE6
:102840000CD0019800F0F0FD0446039800F0F8FD6C
:1028500003461B681946204600F019FE039B002220
:102860001A60019B184604B010BD00B583B00190FA
:10287000019800F01BFE0346184603B05DF804FB08
:1028800000B585B0039002910192039B029918460E
:10289000FEF75AFD104A039B1A60039B0F4A5A61C8
:1028A0000BA3D3E900230D48FDF729FF02460B4691
:1028B0000399C1E90623039B203308220199184696
:1028C0002EF0E4FD039B184605B05DF804FB00BF45
:1028D00025232284E49CF2CBD88C0308208C0308A7
:1028E00000B583B001900091019B009A11461846F3
:1028F00000F0E8FD019B184603B05DF804FB00B54D
:1029000083B001900091019B00991846FFF7E8FF02
:10291000019B184603B05DF804FB10B584B001902C
:10292000019B184600F0E0FD0390039B1B68002B01
:102930000CD0019800F0E4FD0446039800F0ECFD93
:1029400003461B681946204600F00DFE039B00223B
:102950001A60019B184604B010BD00B583B0019009
:10296000019800F00FFE0346184603B05DF804FB23
:1029700000B585B0039002910192039B029918461D
:10298000FEF7E2FC104A039B1A60039B0F4A5A6150
:102990000BA3D3E900230D48FDF7B1FE02460B4619
:1029A0000399C1E90623039B2033082201991846A5
:1029B0002EF06CFD039B184605B05DF804FB00BFCC
:1029C00025232284E49CF2CBB48C0308288C0308D2
:1029D00000B583B001900091019B009A1146184602
:1029E00000F0DCFD019B184603B05DF804FB00B568
:1029F00083B001900091019B00991846FFF7E8FF12
:102A0000019B184603B05DF804FB10B584B001903B
:102A1000019B184600F0D4FD0390039B1B68002B1C
:102A20000CD0019800F0D8FD0446039800F0E0FDBA
:102A300003461B681946204600F001FE039B002256
:102A40001A60019B184604B010BD00B583B0019018
:102A5000019800F003FE0346184603B05DF804FB3E
:102A600000B585B0039002910192039B029918462C
:102A7000FEF76AFC104A039B1A60039B0F4A5A61D7
:102A80000BA3D3E900230D48FDF739FE02460B46A0
:102A90000399C1E90623039B2033082201991846B4
:102AA0002EF0F4FC039B184605B05DF804FB00BF54
:102AB00025232284E49CF2CB908C0308308C0308FD
:102AC00000B583B001900091019B009A1146184611
:102AD00000F0D0FD019B184603B05DF804FB00B583
:102AE00083B001900091019B00991846FFF7E8FF21
:102AF000019B184603B05DF804FB10B584B001904B
:102B0000019B184600F0C8FD0390039B1B68002B37
:102B10000CD0019800F0CCFD0446039800F0D4FDE1
:102B200003461B681946204600F0F5FD039B002272
:102B30001A60019B184604B010BD00B583B0019027
:102B4000019800F0F7FD0346184603B05DF804FB5A
:102B500000B585B0039002910192039B029918463B
:102B6000FEF7F2FB104A039B1A60039B0F4A5A615F
:102B70000BA3D3E900230D48FDF7C1FD02460B4628
:102B80000399C1E90623039B20330C2201991846BF
:102B90002EF07CFC039B184605B05DF804FB00BFDB
:102BA00025232284E49CF2CB6C8C0308A08A0308C2
:102BB00000B583B001900091019B009A1146184620
:102BC00000F0C4FD019B184603B05DF804FB00B59E
:102BD00083B001900091019B00991846FFF7E8FF30
:102BE000019B184603B05DF804FB10B584B001905A
:102BF000019B184600F0BCFD0390039B1B68002B53
:102C00000CD0019800F0C0FD0446039800F0C8FD08
:102C100003461B681946204600F0E9FD039B00228D
:102C20001A60019B184604B010BD00B583B0019036
:102C3000019800F0EBFD0346184603B05DF804FB75
:102C400000B585B0039002910192039B029918464A
:102C5000FEF77AFB104A039B1A60039B0F4A5A61E6
:102C60000BA3D3E900230D48FDF749FD02460B46AF
:102C70000399C1E90623039B20330C2201991846CE
:102C80002EF004FC039B184605B05DF804FB00BF62
:102C900025232284E49CF2CB488C0308388C03085B
:102CA00000B583B001900091019B009A114618462F
:102CB00000F0B8FD019B184603B05DF804FB00B5B9
:102CC00083B001900091019B00991846FFF7E8FF3F
:102CD000019B184603B05DF804FB10B584B0019069
:102CE000019B184600F0B0FD0390039B1B68002B6E
:102CF0000CD0019800F0B4FD0446039800F0BCFD30
:102D000003461B681946204600F0DDFD039B0022A8
:102D10001A60019B184604B010BD00B583B0019045
:102D2000019800F0DFFD0346184603B05DF804FB90
:102D300010B582B001900091019B184600F007FE8B
:102D4000009C019800F006F803461C60019B1846A1
:102D500002B010BD00B583B00190019B184600F091
:102D600002FE0346184603B05DF804FB00B583B0CD
:102D70000190019B184600F002FE0346184603B07E
:102D80005DF804FB82B00190019B184602B07047C9
:102D900000B583B00190064A019B1A60019B18465A
:102DA000FFF72CF9019B184603B05DF804FB00BF48
:102DB0001C8E030800B583B001900198FFF7E8FF6F
:102DC000202101982DF000FE019B184603B05DF80C
:102DD00004FB00B583B001900091009B002B02D052
:102DE0001846FFF7E7FF03B05DF804FB00B583B0BA
:102DF0000190019B184600F0CEFD0346184603B033
:102E00005DF804FB10B582B001900091019B18465B
:102E100000F0F7FD009C019800F006F803461C60E6
:102E2000019B184602B010BD00B583B00190019B14
:102E3000184600F0F2FD0346184603B05DF804FBA7
:102E400000B583B00190019B184600F0F2FD0346E7
:102E5000184603B05DF804FB82B00190019B184650
:102E600002B0704700B583B00190064A019B1A601A
:102E7000019B1846FFF7C2F8019B184603B05DF8A6
:102E800004FB00BFF88D030800B583B001900198E2
:102E9000FFF7E8FF282101982DF096FD019B1846C9
:102EA00003B05DF804FB00B583B001900091009B76
:102EB000002B04D01A68183212681846904703B0E5
:102EC0005DF804FB00B583B00190019B184600F04B
:102ED000BCFD0346184603B05DF804FB10B582B094
:102EE00001900091019B184600F0E5FD009C0198BF
:102EF00000F006F803461C60019B184602B010BDA6
:102F000000B583B00190019B184600F0E0FD034638
:102F1000184603B05DF804FB00B583B00190019B37
:102F2000184600F0E0FD0346184603B05DF804FBC8
:102F300082B00190019B184602B0704700B583B083
:102F40000190064A019B1A60019B1846FFF756F84C
:102F5000019B184603B05DF804FB00BFD48D030845
:102F600000B583B001900198FFF7E8FF2821019890
:102F70002DF02AFD019B184603B05DF804FB00B557
:102F800083B001900091009B002B04D01A68183286
:102F900012681846904703B05DF804FB00B583B093
:102FA0000190019B184600F0AAFD0346184603B0A5
:102FB0005DF804FB10B582B001900091019B1846AA
:102FC00000F0D3FD009C019800F006F803461C6059
:102FD000019B184602B010BD00B583B00190019B63
:102FE000184600F0CEFD0346184603B05DF804FB1A
:102FF00000B583B00190019B184600F0CEFD03465A
:10300000184603B05DF804FB82B00190019B18469E
:1030100002B0704700B583B00190064A019B1A6068
:10302000019B1846FEF7EAFF019B184603B05DF8C6
:1030300004FB00BF8C8D030800B583B0019001989C
:10304000FFF7E8FF282101982DF0BEFC019B1846F0
:1030500003B05DF804FB00B583B001900091009BC4
:10306000002B04D01A68183212681846904703B033
:103070005DF804FB00B583B00190019B184600F099
:1030800098FD0346184603B05DF804FB10B582B006
:1030900001900091019B184600F0C1FD009C019831
:1030A00000F006F803461C60019B184602B010BDF4
:1030B00000B583B00190019B184600F0BCFD0346AB
:1030C000184603B05DF804FB00B583B00190019B86
:1030D000184600F0BCFD0346184603B05DF804FB3B
:1030E00082B00190019B184602B0704700B583B0D2
:1030F0000190064A019B1A60019B1846FEF77EFF6D
:10310000019B184603B05DF804FB00BF688D0308FF
:1031100000B583B001900198FFF7E8FF30210198D6
:103120002DF052FC019B184603B05DF804FB00B57E
:1031300083B001900091009B002B04D01A681832D4
:1031400012681846904703B05DF804FB00B583B0E1
:103150000190019B184600F086FD0346184603B017
:103160005DF804FB10B582B001900091019B1846F8
:1031700000F0AFFD009C019800F006F803461C60CB
:10318000019B184602B010BD00B583B00190019BB1
:10319000184600F0AAFD0346184603B05DF804FB8C
:1031A00000B583B00190019B184600F0AAFD0346CC
:1031B000184603B05DF804FB82B00190019B1846ED
:1031C00002B0704700B583B00190064A019B1A60B7
:1031D000019B1846FEF712FF019B184603B05DF8ED
:1031E00004FB00BF448D030800B583B00190019833
:1031F000FFF7E8FF302101982DF0E6FB019B184610
:1032000003B05DF804FB00B583B001900091009B12
:10321000002B04D01A68183212681846904703B081
:103220005DF804FB00B583B00190019B184600F0E7
:1032300074FD0346184603B05DF804FB10B582B078
:1032400001900091019B184600F09DFD009C0198A3
:1032500000F006F803461C60019B184602B010BD42
:1032600000B583B00190019B184600F098FD03461D
:10327000184603B05DF804FB00B583B00190019BD4
:10328000184600F098FD0346184603B05DF804FBAD
:1032900082B00190019B184602B0704700B583B020
:1032A0000190064A019B1A60019B1846FEF7A6FE94
:1032B000019B184603B05DF804FB00BFB08D030806
:1032C00000B583B001900198FFF7E8FF3021019825
:1032D0002DF07AFB019B184603B05DF804FB00B5A6
:1032E00083B001900091009B002B04D01A68183223
:1032F00012681846904703B05DF804FB00B583B030
:103300000190019B184600F062FD0346184603B089
:103310005DF804FB10B582B001900091019B184646
:1033200000F08BFD009C019800F006F803461C603D
:10333000019B184602B010BD00B583B00190019BFF
:10334000184600F086FD0346184603B05DF804FBFE
:1033500000B583B00190019B184600F086FD03463E
:10336000184603B05DF804FB82B00190019B18463B
:1033700002B0704700B583B00190064A019B1A6005
:10338000019B1846FEF73AFE019B184603B05DF814
:1033900004FB00BF208D030800B583B001900198A5
:1033A000FFF7E8FF282101982DF00EFB019B18463E
:1033B00003B05DF804FB00B583B001900091009B61
:1033C000002B04D01A68183212681846904703B0D0
:1033D0005DF804FB00B583B00190019B184600F036
:1033E00050FD0346184603B05DF804FB10B582B0EB
:1033F00001900091019B184600F079FD009C019816
:1034000000F006F803461C60019B184602B010BD90
:1034100000B583B00190019B184600F074FD03468F
:10342000184603B05DF804FB00B583B00190019B22
:10343000184600F074FD0346184603B05DF804FB1F
:1034400082B00190019B184602B0704700B583B06E
:103450000190064A019B1A60019B1846FEF7CEFDBB
:10346000019B184603B05DF804FB00BFFC8C030809
:1034700000B583B001900198FFF7E8FF282101987B
:103480002DF0A2FA019B184603B05DF804FB00B5CD
:1034900083B001900091009B002B04D01A68183271
:1034A00012681846904703B05DF804FB00B583B07E
:1034B0000190019B184600F03EFD0346184603B0FC
:1034C0005DF804FB10B582B001900091019B184695
:1034D00000F067FD009C019800F006F803461C60B0
:1034E000019B184602B010BD00B583B00190019B4E
:1034F000184600F062FD0346184603B05DF804FB71
:1035000000B583B00190019B184600F062FD0346B0
:10351000184603B05DF804FB82B00190019B184689
:1035200002B0704700B583B00190064A019B1A6053
:10353000019B1846FEF762FD019B184603B05DF83B
:1035400004FB00BFD88C030800B583B0019001983C
:10355000FFF7E8FF282101982DF036FA019B184665
:1035600003B05DF804FB00B583B001900091009BAF
:10357000002B04D01A68183212681846904703B01E
:103580005DF804FB00B583B00190019B184600F084
:103590002CFD0346184603B05DF804FB10B582B05D
:1035A00001900091019B184600F055FD009C019888
:1035B00000F006F803461C60019B184602B010BDDF
:1035C00000B583B00190019B184600F050FD034602
:1035D000184603B05DF804FB00B583B00190019B71
:1035E000184600F050FD0346184603B05DF804FB92
:1035F00082B00190019B184602B0704700B583B0BD
:103600000190064A019B1A60019B1846FEF7F6FCE2
:10361000019B184603B05DF804FB00BFB48C03089F
:1036200000B583B001900198FFF7E8FF28210198C9
:103630002DF0CAF9019B184603B05DF804FB00B5F4
:1036400083B001900091009B002B04D01A681832BF
:1036500012681846904703B05DF804FB00B583B0CC
:103660000190019B184600F01AFD0346184603B06E
:103670005DF804FB10B582B001900091019B1846E3
:1036800000F043FD009C019800F006F803461C6022
:10369000019B184602B010BD00B583B00190019B9C
:1036A000184600F03EFD0346184603B05DF804FBE3
:1036B00000B583B00190019B184600F03EFD034623
:1036C000184603B05DF804FB82B00190019B1846D8
:1036D00002B0704700B583B00190064A019B1A60A2
:1036E000019B1846FEF78AFC019B184603B05DF863
:1036F00004FB00BF908C030800B583B001900198D3
:10370000FFF7E8FF282101982DF05EF9019B18468C
:1037100003B05DF804FB00B583B001900091009BFD
:10372000002B04D01A68183212681846904703B06C
:103730005DF804FB00B583B00190019B184600F0D2
:1037400008FD0346184603B05DF804FB10B582B0CF
:1037500001900091019B184600F031FD009C0198FA
:1037600000F006F803461C60019B184602B010BD2D
:1037700000B583B00190019B184600F02CFD034674
:10378000184603B05DF804FB00B583B00190019BBF
:10379000184600F02CFD0346184603B05DF804FB04
:1037A00082B00190019B184602B0704700B583B00B
:1037B0000190064A019B1A60019B1846FEF71EFC09
:1037C000019B184603B05DF804FB00BF6C8C030836
:1037D00000B583B001900198FFF7E8FF3021019810
:1037E0002DF0F2F8019B184603B05DF804FB00B51C
:1037F00083B001900091009B002B04D01A6818320E
:1038000012681846904703B05DF804FB00B583B01A
:103810000190019B184600F0F6FC0346184603B0E1
:103820005DF804FB10B582B001900091019B184631
:1038300000F01FFD009C019800F006F803461C6094
:10384000019B184602B010BD00B583B00190019BEA
:10385000184600F01AFD0346184603B05DF804FB55
:1038600000B583B00190019B184600F01AFD034695
:10387000184603B05DF804FB82B00190019B184626
:1038800002B0704700B583B00190064A019B1A60F0
:10389000019B1846FEF7B2FB019B184603B05DF88A
:1038A00004FB00BF488C030800B583B00190019869
:1038B000FFF7E8FF302101982DF086F8019B1846AC
:1038C00003B05DF804FB00B583B001900091009B4C
:1038D000002B04D01A68183212681846904703B0BB
:1038E0005DF804FB00B583B00190019B184600F021
:1038F000E4FC0346184603B05DF804FB82B0019077
:10390000019B184602B0704700B583B00190019842
:10391000FFF7F4FF019B184603B05DF804FB82B08B
:103920000190019B00221A60019B184602B070476B
:1039300000B583B001900198FFF7E6FF019B1846A0
:10394000FFF7EDFF019B184603B05DF804FB00B5DF
:1039500083B00190019B1846FFF7EAFF019B1846D0
:1039600003B05DF804FB00B583B00190019B1846DD
:1039700000F0B0FC0346184603B05DF804FB00B548
:1039800083B00190019B184600F0AFFC0346184637
:1039900003B05DF804FB00B583B00190019B1846AD
:1039A00000F0AEFC03461B68184603B05DF804FB4C
:1039B00082B00190019B184602B0704700B583B0F9
:1039C00001900198FFF7F4FF019B184603B05DF8E2
:1039D00004FB82B00190019B00221A60019B1846F3
:1039E00002B0704700B583B001900198FFF7E6FF81
:1039F000019B1846FFF7EDFF019B184603B05DF8E9
:103A000004FB00B583B00190019B1846FFF7EAFF65
:103A1000019B184603B05DF804FB00B583B001902C
:103A2000019B184600F078FC0346184603B05DF889
:103A300004FB00B583B00190019B184600F077FCB1
:103A40000346184603B05DF804FB00B583B001904F
:103A5000019B184600F076FC03461B68184603B02D
:103A60005DF804FB82B00190019B184602B07047DC
:103A700000B583B001900198FFF7F4FF019B184651
:103A800003B05DF804FB82B00190019B00221A6034
:103A9000019B184602B0704700B583B001900198B1
:103AA000FFF7E6FF019B1846FFF7EDFF019B184665
:103AB00003B05DF804FB00B583B00190019B18468C
:103AC000FFF7EAFF019B184603B05DF804FB00B561
:103AD00083B00190019B184600F040FC0346184655
:103AE00003B05DF804FB00B583B00190019B18465C
:103AF00000F03FFC0346184603B05DF804FB00B538
:103B000083B00190019B184600F03EFC03461B6801
:103B1000184603B05DF804FB82B00190019B184683
:103B200002B0704700B583B001900198FFF7F4FF31
:103B3000019B184603B05DF804FB82B00190019B25
:103B400000221A60019B184602B0704700B583B08E
:103B500001900198FFF7E6FF019B1846FFF7EDFF84
:103B6000019B184603B05DF804FB00B583B00190DB
:103B7000019B1846FFF7EAFF019B184603B05DF86A
:103B800004FB00B583B00190019B184600F008FCCF
:103B90000346184603B05DF804FB00B583B00190FE
:103BA000019B184600F007FC0346184603B05DF879
:103BB00004FB00B583B00190019B184600F006FCA1
:103BC00003461B68184603B05DF804FB82B0019001
:103BD000019B184602B0704700B583B00190019870
:103BE000FFF7F4FF019B184603B05DF804FB82B0B9
:103BF0000190019B00221A60019B184602B0704799
:103C000000B583B001900198FFF7E6FF019B1846CD
:103C1000FFF7EDFF019B184603B05DF804FB00B50C
:103C200083B00190019B1846FFF7EAFF019B1846FD
:103C300003B05DF804FB00B583B00190019B18460A
:103C400000F0D0FB0346184603B05DF804FB00B556
:103C500083B00190019B184600F0CFFB0346184645
:103C600003B05DF804FB00B583B00190019B1846DA
:103C700000F0CEFB03461B68184603B05DF804FB5A
:103C800082B00190019B184602B0704700B583B026
:103C900001900198FFF7F4FF019B184603B05DF80F
:103CA00004FB82B00190019B00221A60019B184620
:103CB00002B0704700B583B001900198FFF7E6FFAE
:103CC000019B1846FFF7EDFF019B184603B05DF816
:103CD00004FB00B583B00190019B1846FFF7EAFF93
:103CE000019B184603B05DF804FB00B583B001905A
:103CF000019B184600F098FB0346184603B05DF898
:103D000004FB00B583B00190019B184600F097FBBF
:103D10000346184603B05DF804FB00B583B001907C
:103D2000019B184600F096FB03461B68184603B03B
:103D30005DF804FB82B00190019B184602B0704709
:103D400000B583B001900198FFF7F4FF019B18467E
:103D500003B05DF804FB82B00190019B00221A6061
:103D6000019B184602B0704700B583B001900198DE
:103D7000FFF7E6FF019B1846FFF7EDFF019B184692
:103D800003B05DF804FB00B583B00190019B1846B9
:103D9000FFF7EAFF019B184603B05DF804FB00B58E
:103DA00083B00190019B184600F060FB0346184663
:103DB00003B05DF804FB00B583B00190019B184689
:103DC00000F05FFB0346184603B05DF804FB00B546
:103DD00083B00190019B184600F05EFB03461B6810
:103DE000184603B05DF804FB82B00190019B1846B1
:103DF00002B0704700B583B001900198FFF7F4FF5F
:103E0000019B184603B05DF804FB82B00190019B52
:103E100000221A60019B184602B0704700B583B0BB
:103E200001900198FFF7E6FF019B1846FFF7EDFFB1
:103E3000019B184603B05DF804FB00B583B0019008
:103E4000019B1846FFF7EAFF019B184603B05DF897
:103E500004FB00B583B00190019B184600F028FBDD
:103E60000346184603B05DF804FB00B583B001902B
:103E7000019B184600F027FB0346184603B05DF887
:103E800004FB00B583B00190019B184600F026FBAF
:103E900003461B68184603B05DF804FB82B001902E
:103EA000019B184602B0704700B583B0019001989D
:103EB000FFF7F4FF019B184603B05DF804FB82B0E6
:103EC0000190019B00221A60019B184602B07047C6
:103ED00000B583B001900198FFF7E6FF019B1846FB
:103EE000FFF7EDFF019B184603B05DF804FB00B53A
:103EF00083B00190019B1846FFF7EAFF019B18462B
:103F000003B05DF804FB00B583B00190019B184637
:103F100000F0F0FA0346184603B05DF804FB00B564
:103F200083B00190019B184600F0EFFA0346184653
:103F300003B05DF804FB00B583B00190019B184607
:103F400000F0EEFA03461B68184603B05DF804FB68
:103F500082B00190019B184602B0704700B583B053
:103F600001900198FFF7F4FF019B184603B05DF83C
:103F700004FB82B00190019B00221A60019B18464D
:103F800002B0704700B583B001900198FFF7E6FFDB
:103F9000019B1846FFF7EDFF019B184603B05DF843
:103FA00004FB00B583B00190019B1846FFF7EAFFC0
:103FB000019B184603B05DF804FB00B583B0019087
:103FC000019B184600F0B8FA0346184603B05DF8A6
:103FD00004FB00B583B00190019B184600F0B7FACE
:103FE0000346184603B05DF804FB00B583B00190AA
:103FF000019B184600F0B6FA03461B68184603B04A
:104000005DF804FB82B00190019B184602B0704736
:1040100000B583B001900198FFF7F4FF019B1846AB
:1040200003B05DF804FB82B00190019B00221A608E
:10403000019B184602B0704700B583B0019001980B
:10404000FFF7E6FF019B1846FFF7EDFF019B1846BF
:1040500003B05DF804FB00B583B00190019B1846E6
:10406000FFF7EAFF019B184603B05DF804FB00B5BB
:1040700083B00190019B184600F080FA0346184671
:1040800003B05DF804FB00B583B00190019B1846B6
:1040900000F07FFA0346184603B05DF804FB00B554
:1040A00083B00190019B184600F07EFA03461B681E
:1040B000184603B05DF804FB82B00190019B1846DE
:1040C00002B0704700B583B001900198FFF7F4FF8C
:1040D000019B184603B05DF804FB82B00190019B80
:1040E00000221A60019B184602B0704700B583B0E9
:1040F00001900198FFF7E6FF019B1846FFF7EDFFDF
:10410000019B184603B05DF804FB00B583B0019035
:10411000019B1846FFF7EAFF019B184603B05DF8C4
:1041200004FB00B583B00190019B184600F048FAEB
:104130000346184603B05DF804FB00B583B0019058
:10414000019B184600F047FA0346184603B05DF895
:1041500004FB00B583B00190019B184600F046FABD
:1041600003461B68184603B05DF804FB82B001905B
:10417000019B184602B0704700B583B001900198CA
:10418000FFF7F4FF019B184603B05DF804FB82B013
:104190000190019B00221A60019B184602B07047F3
:1041A00000B583B001900198FFF7E6FF019B184628
:1041B000FFF7EDFF019B184603B05DF804FB00B567
:1041C00083B00190019B1846FFF7EAFF019B184658
:1041D00003B05DF804FB00B583B00190019B184665
:1041E00000F010FA0346184603B05DF804FB00B572
:1041F00083B00190019B184600F00FFA0346184661
:1042000003B05DF804FB00B583B00190019B184634
:1042100000F00EFA03461B68184603B05DF804FB75
:1042200082B00190019B184602B0704700B583B080
:1042300001900198FFF7F4FF019B184603B05DF869
:1042400004FB82B00190019B00221A60019B18467A
:1042500002B0704700B583B001900198FFF7E6FF08
:10426000019B1846FFF7EDFF019B184603B05DF870
:1042700004FB00B583B00190019B1846FFF7EAFFED
:10428000019B184603B05DF804FB00B583B00190B4
:10429000019B184600F0D8F90346184603B05DF8B4
:1042A00004FB00B583B00190019B184600F0D7F9DC
:1042B0000346184603B05DF804FB00B583B00190D7
:1042C000019B184600F0D6F903461B68184603B058
:1042D0005DF804FB00B583B00190019800F0D6F9B9
:1042E0000346184603B05DF804FB00B583B00190A7
:1042F000019800F0D7F90346184603B05DF804FBB7
:1043000000B583B00190019B184600F0D6F9034632
:10431000184603B05DF804FB00B583B00190019826
:1043200000F0D6F90346184603B05DF804FB00B56B
:1043300083B00190019800F0D7F90346184603B006
:104340005DF804FB00B583B00190019B184600F0B6
:10435000D6F90346184603B05DF804FB00B583B0F8
:104360000190019800F0D6F90346184603B05DF8B5
:1043700004FB00B583B00190019800F0D7F9034623
:10438000184603B05DF804FB00B583B00190019BB3
:10439000184600F0D6F90346184603B05DF804FB52
:1043A00000B583B00190019800F0D6F90346184695
:1043B00003B05DF804FB00B583B00190019800F0F4
:1043C000D7F90346184603B05DF804FB00B583B087
:1043D0000190019B184600F0D6F90346184603B039
:1043E0005DF804FB00B583B00190019800F0D6F9A8
:1043F0000346184603B05DF804FB00B583B0019096
:10440000019800F0D7F90346184603B05DF804FBA5
:1044100000B583B00190019B184600F0D6F9034621
:10442000184603B05DF804FB00B583B00190019815
:1044300000F0D6F90346184603B05DF804FB00B55A
:1044400083B00190019800F0D7F90346184603B0F5
:104450005DF804FB00B583B00190019B184600F0A5
:10446000D6F90346184603B05DF804FB00B583B0E7
:104470000190019800F0D6F90346184603B05DF8A4
:1044800004FB00B583B00190019800F0D7F9034612
:10449000184603B05DF804FB00B583B00190019BA2
:1044A000184600F0D6F90346184603B05DF804FB41
:1044B00000B583B00190019800F0D6F90346184684
:1044C00003B05DF804FB00B583B00190019800F0E3
:1044D000D7F90346184603B05DF804FB00B583B076
:1044E0000190019B184600F0D6F90346184603B028
:1044F0005DF804FB00B583B00190019800F0D6F997
:104500000346184603B05DF804FB00B583B0019084
:10451000019800F0D7F90346184603B05DF804FB94
:1045200000B583B00190019B184600F0D6F9034610
:10453000184603B05DF804FB00B583B00190019804
:1045400000F0D6F90346184603B05DF804FB00B549
:1045500083B00190019800F0D7F90346184603B0E4
:104560005DF804FB00B583B00190019B184600F094
:10457000D6F90346184603B05DF804FB00B583B0D6
:104580000190019800F0D6F90346184603B05DF893
:1045900004FB00B583B00190019800F0D7F9034601
:1045A000184603B05DF804FB00B583B00190019B91
:1045B000184600F0D6F90346184603B05DF804FB30
:1045C00000B583B00190019800F0D6F90346184673
:1045D00003B05DF804FB00B583B00190019800F0D2
:1045E000D7F90346184603B05DF804FB00B583B065
:1045F0000190019B184600F0D6F90346184603B017
:104600005DF804FB00B583B00190019800F0D6F985
:104610000346184603B05DF804FB00B583B0019073
:10462000019800F0D7F90346184603B05DF804FB83
:1046300000B583B00190019B184600F0D6F90346FF
:10464000184603B05DF804FB00B583B001900198F3
:1046500000F0D6F90346184603B05DF804FB00B538
:1046600083B00190019800F0D7F90346184603B0D3
:104670005DF804FB00B583B00190019B184600F083
:10468000D6F90346184603B05DF804FB00B583B0C5
:104690000190019B184600F0D5F90346184603B077
:1046A0005DF804FB00B583B00190019800F0D0F9EB
:1046B0000346184603B05DF804FB00B583B00190D3
:1046C000019800F0D0F90346184603B05DF804FBEA
:1046D00000B583B00190019B184600F0D0F9034665
:1046E000184603B05DF804FB00B583B00190019853
:1046F00000F0CBF90346184603B05DF804FB00B5A3
:1047000083B00190019800F0CBF90346184603B03E
:104710005DF804FB00B583B00190019B184600F0E2
:10472000CBF90346184603B05DF804FB00B583B02F
:104730000190019800F0C6F90346184603B05DF8F1
:1047400004FB00B583B00190019800F0C6F9034660
:10475000184603B05DF804FB00B583B00190019BDF
:10476000184600F0C6F90346184603B05DF804FB8E
:1047700000B583B00190019800F0C1F903461846D6
:1047800003B05DF804FB00B583B00190019800F020
:10479000C1F90346184603B05DF804FB00B583B0C9
:1047A0000190019B184600F0C1F90346184603B07A
:1047B0005DF804FB00B583B00190019800F0BCF9EE
:1047C0000346184603B05DF804FB00B583B00190C2
:1047D000019800F0BCF90346184603B05DF804FBED
:1047E00000B583B00190019B184600F0BCF9034668
:1047F000184603B05DF804FB00B583B00190019842
:1048000000F0B7F90346184603B05DF804FB00B5A5
:1048100083B00190019800F0B7F90346184603B041
:104820005DF804FB00B583B00190019B184600F0D1
:10483000B7F90346184603B05DF804FB00B583B032
:104840000190019800F0B2F90346184603B05DF8F4
:1048500004FB00B583B00190019800F0B2F9034663
:10486000184603B05DF804FB00B583B00190019BCE
:10487000184600F0B2F90346184603B05DF804FB91
:1048800000B583B00190019800F0ADF903461846D9
:1048900003B05DF804FB00B583B00190019800F00F
:1048A000ADF90346184603B05DF804FB00B583B0CC
:1048B0000190019B184600F0ADF90346184603B07D
:1048C0005DF804FB00B583B00190019800F0A8F9F1
:1048D0000346184603B05DF804FB00B583B00190B1
:1048E000019800F0A8F90346184603B05DF804FBF0
:1048F00000B583B00190019B184600F0A8F903466B
:10490000184603B05DF804FB00B583B00190019830
:1049100000F0A3F90346184603B05DF804FB00B5A8
:1049200083B00190019800F0A3F90346184603B044
:104930005DF804FB00B583B00190019B184600F0C0
:10494000A3F90346184603B05DF804FB00B583B035
:104950000190019800F09EF90346184603B05DF8F7
:1049600004FB00B583B00190019800F09EF9034666
:10497000184603B05DF804FB00B583B00190019BBD
:10498000184600F09EF90346184603B05DF804FB94
:1049900000B583B00190019800F099F903461846DC
:1049A00003B05DF804FB00B583B00190019800F0FE
:1049B00099F90346184603B05DF804FB00B583B0CF
:1049C0000190019B184600F099F90346184603B080
:1049D0005DF804FB00B583B00190019800F094F9F4
:1049E0000346184603B05DF804FB00B583B00190A0
:1049F000019800F094F90346184603B05DF804FBF3
:104A000000B583B00190019B184600F094F903466D
:104A1000184603B05DF804FB00B583B0019001981F
:104A200000F08FF90346184603B05DF804FB00B5AB
:104A300083B00190019800F08FF90346184603B047
:104A40005DF804FB82B00190019B184602B07047EC
:104A500000B583B00190019800F08AF9034618462A
:104A600003B05DF804FB00B583B00190019B1846CC
:104A700000F084F90346184603B05DF804FB82B0E9
:104A80000190019B184602B0704700B583B00190B9
:104A9000019800F079F90346184603B05DF804FB6D
:104AA00000B583B00190019B184600F073F90346EE
:104AB000184603B05DF804FB82B00190019B1846D4
:104AC00002B0704700B583B00190019800F068F91A
:104AD0000346184603B05DF804FB00B583B00190AF
:104AE000019B184600F062F90346184603B05DF8D2
:104AF00004FB82B00190019B184602B0704700B5DC
:104B000083B00190019800F057F90346184603B0AE
:104B10005DF804FB00B583B00190019B184600F0DE
:104B200051F90346184603B05DF804FB82B00190CA
:104B3000019B184602B0704700B583B00190019800
:104B400000F046F90346184603B05DF804FB00B5D3
:104B500083B00190019B184600F040F903461846C7
:104B600003B05DF804FB82B00190019B184602B0CF
:104B7000704700B583B00190019800F035F9034605
:104B8000184603B05DF804FB00B583B00190019BAB
:104B9000184600F02FF90346184603B05DF804FBF1
:104BA00082B00190019B184602B0704700B583B0F7
:104BB0000190019800F024F90346184603B05DF80F
:104BC00004FB00B583B00190019B184600F01EF96C
:104BD0000346184603B05DF804FB82B00190019BC8
:104BE000184602B0704700B583B00190019800F0FC
:104BF00013F90346184603B05DF804FB00B583B013
:104C00000190019B184600F00DF90346184603B0C9
:104C10005DF804FB82B00190019B184602B070471A
:104C200000B583B00190019800F002F903461846E0
:104C300003B05DF804FB00B583B00190019B1846FA
:104C400000F0FCF80346184603B05DF804FB82B0A0
:104C50000190019B184602B0704700B583B00190E7
:104C6000019800F0F1F80346184603B05DF804FB24
:104C700000B583B00190019B184600F0EBF80346A5
:104C8000184603B05DF804FB82B00190019B184602
:104C900002B0704700B583B00190019800F0E0F8D1
:104CA0000346184603B05DF804FB00B583B00190DD
:104CB000019B184600F0DAF80346184603B05DF889
:104CC00004FB82B00190019B184602B0704700B50A
:104CD00083B00190019800F0CFF80346184603B066
:104CE0005DF804FB00B583B00190019B184600F00D
:104CF000C9F80346184603B05DF804FB82B0019082
:104D0000019B184602B0704700B583B0019001982E
:104D100000F0BEF80346184603B05DF804FB00B58A
:104D200083B00190019B184600F0B8F8034618467E
:104D300003B05DF804FB82B00190019B184602B0FD
:104D4000704700B583B00190019800F0ADF80346BC
:104D5000184603B05DF804FB00B583B00190019BD9
:104D6000184600F0A7F80346184603B05DF804FBA8
:104D700082B00190019B184602B0704782B001904A
:104D8000019B184602B0704782B00190019B184603
:104D900002B0704782B00190019B184602B0704784
:104DA00082B00190019B184602B0704782B001901A
:104DB000019B184602B0704782B00190019B1846D3
:104DC00002B0704782B00190019B184602B0704754
:104DD00082B00190019B184602B0704782B00190EA
:104DE000019B184602B0704782B00190019B1846A3
:104DF00002B0704782B00190019B184602B0704724
:104E000082B00190019B184602B0704782B00190B9
:104E1000019B184602B0704782B00190019B184672
:104E200002B0704782B00190019B184602B07047F3
:104E300082B00190019B184602B0704782B0019089
:104E4000019B184602B0704782B00190019B184642
:104E500002B0704782B00190019B184602B07047C3
:104E600082B00190019B184602B0704782B0019059
:104E7000019B184602B0704782B00190019B184612
:104E800002B0704782B00190019B184602B0704793
:104E900082B00190019B184602B0704782B0019029
:104EA000019B184602B0704782B00190019B1846E2
:104EB00002B0704782B00190019B184602B0704763
:104EC00000B5A1B001900091019B012B40F01D8124
:104ED000009B4FF6FF72934240F017818C48FCF71D
:104EE000F9FA03468B4A13608A4B1B68029302ABA4
:104EF00019468948FCF7F9FA0346884A1360854B3E
:104F00001B680393854B1B68049303AB19468448C5
:104F1000FCF7F8FA0346834A13607E4B1B6805933F
:104F2000804B1B68069305AB19467F48FCF7F7FAE0
:104F300003467E4A1360774B1B680793774B1B68C9
:104F40000893784B1B68099307AB19467848FCF720
:104F5000F3FA0346774A13606E4B1B680A936F4B54
:104F60001B680B936F4B1B680C930AAB1946724876
:104F7000FCF7EFFA0346714A1360664B1B680D930A
:104F8000664B1B680E93674B1B680F930DAB19465E
:104F90006B48FCF7EBFA03466A4A13605F4B1B68E9
:104FA0001093604B1B68119310AB19466648FCF7D1
:104FB000EAFA0346654A1360584B1B681293594B33
:104FC0001B68139312AB19466148FCF7E9FA0346D4
:104FD000604A1360514B1B681493524B1B68159326
:104FE00014AB19465C48FCF7E8FA03465B4A1360C9
:104FF0004A4B1B6816934B4B1B68179316AB19460D
:105000005748FCF7E7FA0346564A1360434B1B68C0
:105010001893444B1B68199318AB19465248FCF778
:10502000E6FA0346514A13603C4B1B681A93454B02
:105030001B681B933B4B1B681C931AAB19464C48CF
:10504000FCF7E2FA03464B4A1360344B1B681D938E
:105050003C4B1B681E93334B1B681F931DAB1946BB
:105060004548FCF7DEFA0346444A1360294B1B68A7
:105070001A46434B1A60294B1B681A46404B5A602C
:10508000284B1B681A463E4B9A60284B1B681A46F1
:105090003B4BDA60274B1B681A46394B1A61274B8A
:1050A0001B681A46364B5A61264B1B681A46344B0E
:1050B0009A61264B1B681A46314BDA61254B1B68F7
:1050C0001A462F4B1A62254B1B681A462C4B5A6204
:1050D000244B1B681A462A4B9A62244B1B681A46BB
:1050E000274BDA62234B1B681A46254B1A63234B66
:1050F0001B681A46224B5A630623224A0E21204877
:10510000FCF750F90346204A136021B05DF804FB18
:10511000C0050020580A0020F00300205C0A00208F
:10512000D8060020600A002030060020640A002013
:10513000C8030020680A0020B00600206C0A002086
:1051400068060020700A0020AC020020740A0020CB
:10515000E8050020780A0020600300207C0A002077
:1051600084040020800A002058040020840A0020C3
:1051700000070020880A0020380300208C0A002045
:10518000900A002090020020C80A002000000000C1
:1051900000B58BB0019000911BA3D3E900230098C8
:1051A000FBF7ADFACDE90601019B20330593059B82
:1051B0000993059B0C330493099A049B9A421CD0D3
:1051C000099B1B680393039B1B6810331B680398A0
:1051D00098470346D3E90023DDE90601994208BF59
:1051E00090420CBF01230023DBB2002B01D0039BB4
:1051F00004E0099B04330993DEE7002318460BB053
:105200005DF804FBAFF3008025232284E49CF2CBFD
:1052100082B00190019B5B69184602B0704782B072
:105220000190019B1833184602B07047000000003F
:1052300000B58BB0019000911BA3D3E90023009827
:10524000FBF75DFACDE90601019B20330593059B31
:105250000993059B0C330493099A049B9A421CD032
:10526000099B1B680393039B1B6810331B680398FF
:1052700098470346D3E90023DDE90601994208BFB8
:1052800090420CBF01230023DBB2002B01D0039B13
:1052900004E0099B04330993DEE7002318460BB0B2
:1052A0005DF804FBAFF3008025232284E49CF2CB5D
:1052B00082B00190019B5B69184602B0704782B0D2
:1052C0000190019B1833184602B07047000000009F
:1052D00000B58BB0019000911BA3D3E90023009887
:1052E000FBF70DFACDE90601019B20330593059BE1
:1052F0000993059B08330493099A049B9A421CD096
:10530000099B1B680393039B1B6810331B6803985E
:1053100098470346D3E90023DDE90601994208BF17
:1053200090420CBF01230023DBB2002B01D0039B72
:1053300004E0099B04330993DEE7002318460BB011
:105340005DF804FBAFF3008025232284E49CF2CBBC
:1053500082B00190019B5B69184602B0704782B031
:105360000190019B1833184602B0704700000000FE
:1053700000B58BB0019000911BA3D3E900230098E6
:10538000FBF7BDF9CDE90601019B20330593059B91
:105390000993059B08330493099A049B9A421CD0F5
:1053A000099B1B680393039B1B6810331B680398BE
:1053B00098470346D3E90023DDE90601994208BF77
:1053C00090420CBF01230023DBB2002B01D0039BD2
:1053D00004E0099B04330993DEE7002318460BB071
:1053E0005DF804FBAFF3008025232284E49CF2CB1C
:1053F00082B00190019B5B69184602B0704782B091
:105400000190019B1833184602B07047000000005D
:1054100000B58BB0019000911BA3D3E90023009845
:10542000FBF76DF9CDE90601019B20330593059B40
:105430000993059B08330493099A049B9A421CD054
:10544000099B1B680393039B1B6810331B6803981D
:1054500098470346D3E90023DDE90601994208BFD6
:1054600090420CBF01230023DBB2002B01D0039B31
:1054700004E0099B04330993DEE7002318460BB0D0
:105480005DF804FBAFF3008025232284E49CF2CB7B
:1054900082B00190019B5B69184602B0704782B0F0
:1054A0000190019B1833184602B0704700000000BD
:1054B00000B58BB0019000911BA3D3E900230098A5
:1054C000FBF71DF9CDE90601019B20330593059BF0
:1054D0000993059B08330493099A049B9A421CD0B4
:1054E000099B1B680393039B1B6810331B6803987D
:1054F00098470346D3E90023DDE90601994208BF36
:1055000090420CBF01230023DBB2002B01D0039B90
:1055100004E0099B04330993DEE7002318460BB02F
:105520005DF804FBAFF3008025232284E49CF2CBDA
:1055300082B00190019B5B69184602B0704782B04F
:105540000190019B1833184602B07047000000001C
:1055500000B58BB0019000911BA3D3E90023009804
:10556000FBF7CDF8CDE90601019B20330593059BA0
:105570000993059B08330493099A049B9A421CD013
:10558000099B1B680393039B1B6810331B680398DC
:1055900098470346D3E90023DDE90601994208BF95
:1055A00090420CBF01230023DBB2002B01D0039BF0
:1055B00004E0099B04330993DEE7002318460BB08F
:1055C0005DF804FBAFF3008025232284E49CF2CB3A
:1055D00082B00190019B5B69184602B0704782B0AF
:1055E0000190019B1833184602B07047000000007C
:1055F00000B58BB0019000911BA3D3E90023009864
:10560000FBF77DF8CDE90601019B20330593059B4F
:105610000993059B0C330493099A049B9A421CD06E
:10562000099B1B680393039B1B6810331B6803983B
:1056300098470346D3E90023DDE90601994208BFF4
:1056400090420CBF01230023DBB2002B01D0039B4F
:1056500004E0099B04330993DEE7002318460BB0EE
:105660005DF804FBAFF3008025232284E49CF2CB99
:1056700082B00190019B5B69184602B0704782B00E
:105680000190019B1833184602B0704700000000DB
:1056900000B58BB0019000911BA3D3E900230098C3
:1056A000FBF72DF8CDE90601019B20330593059BFF
:1056B0000993059B0C330493099A049B9A421CD0CE
:1056C000099B1B680393039B1B6810331B6803989B
:1056D00098470346D3E90023DDE90601994208BF54
:1056E00090420CBF01230023DBB2002B01D0039BAF
:1056F00004E0099B04330993DEE7002318460BB04E
:105700005DF804FBAFF3008025232284E49CF2CBF8
:1057100082B00190019B5B69184602B0704782B06D
:105720000190019B1833184602B07047000000003A
:1057300000B58BB0019000911BA3D3E90023009822
:10574000FAF7DDFFCDE90601019B20330593059BA8
:105750000993059B08330493099A049B9A421CD031
:10576000099B1B680393039B1B6810331B680398FA
:1057700098470346D3E90023DDE90601994208BFB3
:1057800090420CBF01230023DBB2002B01D0039B0E
:1057900004E0099B04330993DEE7002318460BB0AD
:1057A0005DF804FBAFF3008025232284E49CF2CB58
:1057B00082B00190019B5B69184602B0704782B0CD
:1057C0000190019B1833184602B07047000000009A
:1057D00000B58BB0019000911BA3D3E90023009882
:1057E000FAF78DFFCDE90601019B20330593059B58
:1057F0000993059B0C330493099A049B9A421CD08D
:10580000099B1B680393039B1B6810331B68039859
:1058100098470346D3E90023DDE90601994208BF12
:1058200090420CBF01230023DBB2002B01D0039B6D
:1058300004E0099B04330993DEE7002318460BB00C
:105840005DF804FBAFF3008025232284E49CF2CBB7
:1058500082B00190019B5B69184602B0704782B02C
:105860000190019B1833184602B0704700000000F9
:1058700000B58BB0019000911BA3D3E900230098E1
:10588000FAF73DFFCDE90601019B20330593059B07
:105890000993059B08330493099A049B9A421CD0F0
:1058A000099B1B680393039B1B6810331B680398B9
:1058B00098470346D3E90023DDE90601994208BF72
:1058C00090420CBF01230023DBB2002B01D0039BCD
:1058D00004E0099B04330993DEE7002318460BB06C
:1058E0005DF804FBAFF3008025232284E49CF2CB17
:1058F00082B00190019B5B69184602B0704782B08C
:105900000190019B1833184602B070470000000058
:1059100000B58BB0019000911BA3D3E90023009840
:10592000FAF7EDFECDE90601019B20330593059BB7
:105930000993059B04330493099A049B9A421CD053
:10594000099B1B680393039B1B6810331B68039818
:1059500098470346D3E90023DDE90601994208BFD1
:1059600090420CBF01230023DBB2002B01D0039B2C
:1059700004E0099B04330993DEE7002318460BB0CB
:105980005DF804FBAFF3008025232284E49CF2CB76
:1059900082B00190019B5B69184602B0704782B0EB
:1059A0000190019B1833184602B0704782B00190F5
:1059B00000910023184602B0704782B00190019B0D
:1059C0005B69184602B0704782B00190019B1833A2
:1059D000184602B0704708B54FF6FF710120FFF777
:1059E0006FFA08BD08B5FAF7FDFB1EF0040F0CBFF7
:1059F000EFF30880EFF309800CF058BB70471EF0FE
:105A0000040F0CBFEFF30880EFF309800CF057BBD5
:105A100070471EF0040F0CBFEFF30880EFF309800E
:105A20000CF04DBB70471EF0040F0CBFEFF3088065
:105A3000EFF309800CF043BB70471EF0040F0CBF5E
:105A4000EFF30880EFF309800CF039BB70470000DA
:105A500008B5024B1B6B984708BD00BF040000202F
:105A600008B5024B1B6C984708BD00BF040000201E
:105A700008B5024B5B6C984708BD00BF04000020CE
:105A800008B5024B9B6C984708BD00BF040000207E
:105A900008B5024B1B6D984708BD00BF04000020ED
:105AA00008B5024B5B6D984708BD00BF040000209D
:105AB00008B5024B9B6D984708BD00BF040000204D
:105AC00008B5024BDB6D984708BD00BF04000020FD
:105AD00008B5024B1B6E984708BD00BF04000020AC
